:020000000C945E
:100002002A000C9400000C9400000C9400000C9444
:1000120000000C9400000C9400000C9400000C945E
:1000220000000C9400000C9400000C9400000C944E
:1000320000000C9400000C9400000C9400000C943E
:1000420000000C9400000C9400000C9400000C942E
:100052000000F894EE27ECBBF1E0FBBFEBBFE5BF7D
:100062008DE0A2E0BB27ED938A95E9F780E094E06A
:10007200A0E6ED930197E9F7EFE5EDBFE4E0EEBF0F
:10008200C0E6D1E00C9445002897E1E0E883E3E084
:10009200E983E2E0EA83E6E0EB83E4E0EC83ECE090
:1000A200ED83E8E0EE83E9E0EF83E0E0EABBE2E043
:1000B200EBBBE0E0E7BBE8BBEFE0E4BBE0E0E5BBC5
:1000C200E0E8E1BBE0E0E2BBE3BFE2BFECBFEFBDD3
:1000D200EEBDEDBDECBDE7BDE6BDEBBDEABDE9BDE4
:1000E200E8BDE2BDE2E6E5BDE0E0E4BDE3BDE9BFB7
:1000F200E5BFE4BFEAB9E0E8E8B9E0E2E7B9E1E880
:10010200E6B9E0E0E0BFEDB9E6BFC99B0AC000E096
:1001120010E00830E0E01E0724F40FD00F5F1F4FFD
:10012200F8CFC99908C007E010E0112322F005D0EA
:1001320001501040FACFE9CFFFCFDE01A00FB11F6F
:10014200EC91E5BBA2E0B0E00C94A700109639F068
:100152008AEF90E00197F1F7A8951197C9F70895F2
:00000001FF
