:0C0000000C9438000C9400000C940000DC
:10000C000C9400000C9400000C9400000C94000064
:10001C000C9400000C9400000C9400000C946500EF
:10002C000C9400000C9400000C9400000C94000044
:10003C000C9400000C9400000C9400000C94000034
:10004C000C9400000C94000001002D4E414E004910
:10005C004E46000080C001006101540002006501A1
:10006C0060000000F894EE27ECBBF1E0FBBFEBBFA7
:10007C00E5BF8DE0A2E0BB27ED938A95E9F780E020
:10008C0094E0A0E6ED930197E9F7E2E6F0E08591C4
:10009C009591009761F0A591B59105901590BF01D0
:1000AC00F00105900D920197E1F7FB01F0CFEFE520
:1000BC00EDBFE4E0EEBFC0E6D1E00C9469001A930A
:1000CC001FB119911895E0E0EABBEBBBE0EBE7BB85
:1000DC00E0E0E8BBE4BBE5BBE1BBE2BBE3EDEDB9C3
:1000EC00E0E0EEB9EEB1EFB1A0E10E94210178940D
:1000FC005524A52D0E944E014E2EF0E0FA93EA9362
:10010C00A0E6B1E00E949400E0E0EA93A0E00E9437
:10011C00E200A0E6B1E00E941001FFCFBA93AA93CF
:10012C00A991B991E991F99130962AF4E095F0955D
:10013C0031966DE26D93E89480E197E20DD088EEF4
:10014C0093E00AD084E6992707D08AE005D06E2F79
:10015C0010D066276C9308956627E817F90720F0EE
:10016C006395E81BF90BC9F7662311F416F0089593
:10017C006894605D6D930895AA93E5B3EF70AE2F0C
:10018C00E881E07FEA2BE5BB8DE08A95F1F7AA9A2E
:10019C008DE08A95F1F7AA988DE08A95F1F77EC0EB
:1001AC00AA93A881E9DFE881E295E883A881E4DFDE
:1001BC0085E88A95F1F772C0AA93E881F0E0EB59D3
:1001CC00FE4FE081A981AE0FEBDF7980688022962B
:1001DC000895A2E00E945601ACE0E2DFA1E00E948B
:1001EC005601E0E06E2E7E2E0895AA93A881AA30C7
:1001FC0011F0791448F0E0E0EA936394A62DDCDF6B
:10020C00A881AA3009F44AC07394A89AA881C8DFBF
:10021C00A89844C0BA93AA931A93A981BA81ED9174
:10022C00A983BA831E2FE03019F0A12FDEDFF5CFA2
:10023C00188123960895AA93E4B3E06FE4BBA29AC5
:10024C00A09AA19AAA98A898A9989880E881E058B1
:10025C00E0936701E881E054E0936801A4E1B0E029
:10026C000E9464010E945C010E945C010E945C017E
:10027C00A0E282DF88EC90E00197F1F7A8E290DF32
:10028C00A4E08EDFA5E88CDFA6E08ADFA2DF06C043
:10029C00AA93E881EFB9779BFECFEFB12196089531
:1002AC000E94D600A3E0B0E00C946401A0E30E948D
:1002BC00C20088EC90E00197F1F70895109639F0A0
:1002CC0080ED97E00197F1F7A8951197C9F708957C
:00000001FF
