:060000000C9438000C9482
:1000060000000C9400000C9400000C9400000C946A
:1000160000000C9400000C9400000C9400000C945A
:1000260000000C9400000C9400000C9400000C944A
:1000360000000C9400000C9400000C9400000C943A
:1000460000000C9400000C9400000C94000080C08A
:1000560001002D4E414E00494E460000020061014E
:1000660054000100650156000000F894EE27ECBB31
:10007600F1E0FBBFEBBFE5BF8DE0A2E0BB27ED9350
:100086008A95E9F780E094E0A0E6ED930197E9F719
:10009600E2E6F0E085919591009761F0A591B59122
:1000A60005901590BF01F00105900D920197E1F7BB
:1000B600FB01F0CFEFE5EDBFE4E0EEBFC0E6D1E037
:1000C6000C946500E0E1EABBE0E0EBBBE0E4E7BBF3
:1000D600E0E0E8BBE4BBE5BBE1BBE2BBE0E4EDB9D5
:1000E600E0E0EEB9A0E180D0E8E45E2EA52D0E9406
:1000F60053014E2E7799FECFE42DF0E0FA93EA9362
:10010600A0E6B1E00E942501E0E0EA93A0E02BD052
:10011600A0E6B1E058D0442011F4DC9A01C0DC9886
:10012600FFCFAA93E5B3EF70AE2FE881E07FEA2B0D
:10013600E5BB8DE08A95F1F7AA9A8DE08A95F1F7ED
:10014600AA988DE08A95F1F70C945901AA93A88193
:10015600E8DFE881E295E883A881E3DF85E88A9510
:10016600F1F70C945901AA93E881F0E0EF59FE4F9C
:10017600E081A981AE0FEADF798068802296089532
:10018600A2E00E945B01ACE0E1DFA1E00E945B011E
:10019600E0E06E2E7E2E0895AA93A881AA3011F073
:1001A600791450F0E0E0EA936394A62DDCDFA88191
:1001B600AA3011F40C9459017394A89AA881C6DF49
:1001C600A8980C945901BA93AA931A93A981BA8153
:1001D600ED91A983BA831E2FE03019F0A12FDCDF41
:1001E600F5CF188123960895AA93E4B3E06FE4BB94
:1001F600A29AA09AA19AAA98A898A9989880E88104
:10020600E058E0936301E881E054E0936401A4E1DF
:10021600B0E00E9469010E9461010E9461010E9492
:100226006101A0E27EDF88EC90E00197F1F7A8E299
:100236008DDFA4E08BDFA5E889DFA6E087DFA0DFFE
:100246000C945901BA93AA93A991B991E991F9919C
:1002560030962AF4E095F09531966DE26D93E89428
:1002660080E197E20DD088EE93E00AD084E69927E4
:1002760007D08AE005D06E2F10D066276C930895BC
:100286006627E817F90720F06395E81BF90BC9F70D
:10029600662311F416F008956894605D6D930895D1
:1002A600AA93E881EFB9779BFECFEFB12196089527
:1002B6000E94A900A3E0B0E00C946901A0E30E94AB
:1002C600940088EC90E00197F1F70895109639F0C4
:1002D60080ED97E00197F1F7A8951197C9F7089572
:00000001FF
