:0C0000000C9438000C9400000C940000DC
:10000C000C9400000C9400000C9400000C94000064
:10001C000C9400000C9400000C9400000C94000054
:10002C000C9400000C9400000C9400000C94000044
:10003C000C9400000C9400000C9400000C94000034
:10004C000C9400000C94000001002D4E414E004910
:10005C004E46000080C0010062015400020066019F
:10006C0060000000F894EE27ECBBF1E0FBBFEBBFA7
:10007C00E5BF8DE0A2E0BB27ED938A95E9F780E020
:10008C0094E0A0E6ED930197E9F7E2E6F0E08591C4
:10009C009591009761F0A591B59105901590BF01D0
:1000AC00F00105900D920197E1F7FB01F0CFEFE520
:1000BC00EDBFE4E0EEBFC0E6D1E00C947400AA936F
:1000CC00E881E064E7B98BE18A95F1F7369A349BC5
:1000DC00FECF349AE4B1F5B10C949401E0E0EABBA4
:1000EC00EBBBE7BBE8BBEFEFE4BBE0E0E5BBE1BBA0
:1000FC00E2BBE3BFE2BFECBFEFBDEEBDEDBDECBDBF
:10010C00E7BDE6BDEBBDEABDE9BDE8BDE2BDE5BDC1
:10011C00E4BDE3BDE9BFE5BFE4BFEAB9E0E8E8B997
:10012C00E0E4E7B9E3EAE6B9E0E0E0BFEDB9E6BF49
:10013C00A0E10E946701E0E0EA93A0E00E941701B1
:10014C00A0E0BDDF2F015A924A92D5010E94C9004E
:10015C00D5010E945601E0E0EA93A1E00E9417014C
:10016C00A1E0ADDF6F01DA92CA92A0916001B0916B
:10017C0061010E94C900A0916001B09161010E94CF
:10018C005601D9CFFFCFBA93AA93A991B991E9910E
:10019C00F99130962AF4E095F09531966DE26D93D5
:1001AC00E89480E197E20DD088EE93E00AD084E6E3
:1001BC00992707D08AE005D06E2F10D066276C9354
:1001CC0008956627E817F90720F06395E81BF90BEB
:1001DC00C9F7662311F416F008956894605D6D9369
:1001EC000895AA93E5B3EF70AE2FE881E07FEA2B78
:1001FC00E5BB8DE08A95F1F7AA9A8DE08A95F1F727
:10020C00AA988DE08A95F1F789C0AA93A881E9DFB5
:10021C00E881E295E883A881E4DF85E88A95F1F727
:10022C007DC0AA93E881F0E0EA59FE4FE081A981F4
:10023C00AE0FEBDFE981E0936A01E881E0936B019B
:10024C0022960895A2E00E949601ACE0DEDFA1E0C8
:10025C000E949601E0E0E0936B01E0936A0108953F
:10026C00AA93A881AA3031F0E0916C01A0916A01A7
:10027C00AE1760F0E0E0EA93A0916B01AF5FA09342
:10028C006B01CFDFA881AA3009F448C0E0916A0164
:10029C00EF5FE0936A01A89AA881B7DFA8983EC0E7
:1002AC00BA93AA931A93A981BA81ED91A983BA83BF
:1002BC001E2FE03019F0A12FD3DFF5CF1881239634
:1002CC000895AA93E4B3E06FE4BBA29AA09AA19A12
:1002DC00AA98A898A998E881E0936C01E058E0935B
:1002EC006801E881E054E0936901A4E1B0E00E9468
:1002FC00A4010E949C010E949C010E949C01A0E20E
:10030C0070DF88EC90E00197F1F7A8E27EDFA4E0C3
:10031C007CDFA5E87ADFA6E078DF94DF21960895EC
:10032C000E940B01A3E0B0E00C94A401A0E30E9496
:10033C00F70088EC90E00197F1F70895109639F0EA
:10034C0080ED97E00197F1F7A8951197C9F70895FB
:00000001FF
