:080000000C942F000C94000089
:100008000C9400000C9400000C945C000C9400000C
:100018000C9400000C9400000C9400000C94000058
:100028000C9400000C9400000C9400000C94000048
:100038000C9400000C9400000C9400000C94000038
:100048000C9400000C9400000C94000080C0020086
:10005800600154000000F894EE27ECBBF1E0FBBF10
:10006800EBBFE5BF8DE0A2E0BB27ED938A95E9F7EA
:1000780080E094E0A0E6ED930197E9F7E6E5F0E08B
:1000880085919591009761F0A591B591059015908E
:10009800BF01F00105900D920197E1F7FB01F0CF48
:1000A800EFE5EDBFE4E0EEBFC0E6D1E00C945D0003
:1000B8001895E0E0EABBEBBBE8E0E7BBE0E0E8BBB3
:1000C800EFEFE4BBE0E0E5BBE0E3E1BBE0E0E2BB8F
:1000D800EDE6E3BFE0E0E2BFECBFE1EAEFBDEDE053
:1000E800EEBDE0E0EDBDECBDE7BDE6BDEBBDEABDB4
:1000F800E9BDE8BDE2BDEEE0E5BDE0E0E4BDE3BD9D
:10010800E0E4E9BFE0E0E5BFE4BFEAB9E0E8E8B968
:10011800E0E2E7B9E3E8E6B9E0E0E0BFEDB9E6BF61
:10012800A0E12DD07894FFCFFFCFAA93E5B3EF706D
:10013800AE2FE881E07FEA2BE5BB8DE08A95F1F7E9
:10014800AA9A8DE08A95F1F7AA988DE08A95F1F739
:100158003FC0AA93A881E9DFE881E295E883A881F6
:10016800E4DF85E88A95F1F733C0A2E033D0ACE04C
:10017800F0DFA1E02FD0E0E04E2E5E2E0895AA9386
:10018800E4B3E06FE4BBA29AA09AA19AAA98A898AF
:10019800A9987880E881E058E0936201E881E0540A
:1001A800E0936301A4E1B0E00E94FA0018D017D0F0
:1001B80016D0A0E2BADF88EC90E00197F1F7A8E248
:1001C800C8DFA4E0C6DFA5E8C4DFA6E0C2DFCDDF54
:1001D80021960895BEDFA3E0B0E00C94FA00A0E3F6
:1001E800A4DF88EC90E00197F1F70895109639F0B4
:1001F80080ED97E00197F1F7A8951197C9F7089551
:00000001FF
