:020000000C945E
:1000020048000C9400000C9400000C9400000C9426
:1000120000000C9400000C9400000C9400000C945E
:1000220000000C9475000C9400000C9400000C94D9
:1000320000000C9400000C9400000C9400000C943E
:1000420000000C9400000C9400000C9400000C942E
:1000520000001027E80364000A00010000100001FC
:1000620010000100000000000000000001002D4E01
:10007200414E00494E46000080C008000400660060
:1000820001006A016E0002006E017A000000F8941D
:10009200EE27ECBBF1E0FBBFEBBFE5BF8DE0A2E0DA
:1000A200BB27ED938A95E9F780E094E0A0E6ED9313
:1000B2000197E9F7ECE7F0E085919591009761F0FF
:1000C200A591B59105901590BF01F00105900D9293
:1000D2000197E1F7FB01F0CFEFE5EDBFE4E0EEBF02
:1000E200C0E6D1E00C949400EA93FA93EFB7EA9356
:1000F200E1E0F0E08E169F061CF0F50131965F01FB
:10010200E991EFBFF991E9911895AA93E881E0622C
:10011200E7B98BE18A95F1F7369A349BFECF349A90
:10012200E5B10C940E03E0E0EABBEBBBE7BBE8BB36
:10013200E4BBE5BBE1BBE2BBE5E0E3BFE0E0E2BF7D
:10014200ECBFEFBDEEBDEDBDECBDE7BDE6BDEBBD69
:10015200EABDE9BDE8BDE2BDE5BDE4BDE3BDE1E068
:10016200E9BFE0E0E5BFE4BFEAB9E0E8E8B9E0E210
:10017200E7B9E3E8E6B9E0E0E0BFEDB9E6BFA8E041
:100182000E94E1027894ECE0F0E0EA15FB05C9F484
:10019200E1E0F0E08E169F062CF0F30131963F016C
:1001A20088249924D301EFE0F0E00E9460033097A5
:1001B20011F4662477248824992444245524AA24FB
:1001C200BB240E941003A3E0A0DFCE2EDD24DA922E
:1001D200CA92A0E6B1E00E945502A0916001A2334A
:1001E20041F4A0916101A53321F4A0916201A333EE
:1001F20009F016C00E94140334F00E941003A1E318
:100202000E94C202C0CFA42DAF5B0E94190311F459
:100212000E9427030E942C0311F44424552442C156
:10022200A0916001A13341F4A0916101A23321F4B4
:10023200A0916201A83309F016C00E94140334F0A1
:100242000E941003A2E30E94C2029DCFA42DAC5BC8
:100252000E94190311F40E9427030E942C0311F437
:10026200442455241FC1A0916001A83321F4A09118
:100272006101A13309F016C00E94140334F00E94F8
:100282001003A3E30E94C2027ECFA42DA95B0E94A9
:10029200190311F40E9427030E942C0311F4442431
:1002A200552400C1A0916001A23341F4A0916101E3
:1002B200A03321F4A0916201A33309F016C00E9479
:1002C200140334F00E941003A4E30E94C2025BCF25
:1002D200A42DA65B0E94190311F40E9427030E9419
:1002E2002C0311F444245524DDC0A0916001A133F4
:1002F20041F4A0916101A13321F4A0916201A433E0
:1003020009F016C00E94140334F00E941003A5E302
:100312000E94C20238CFA42DA35B0E94190311F4DC
:100322000E9427030E942C0311F444245524BAC0CE
:10033200A0916001A73321F4A0916101A53309F0D6
:1003420016C00E94140334F00E941003A6E30E9418
:10035200C20219CFA42DA05B0E94190311F40E94BE
:1003620027030E942C0311F4442455249BC0A0911E
:100372006001A13341F4A0916101A43321F4A09161
:100382006201A53309F016C00E94140334F00E94E2
:100392001003A7E30E94C202F6CEA42DAD5A0E941A
:1003A200190311F40E9427030E942C0311F4442420
:1003B200552478C0A0916001A93321F4A091610174
:1003C200A33309F016C00E94140334F00E941003F4
:1003D200A8E30E94C202D7CEA42DAC5A0E941903F0
:1003E20011F40E9427030E942C0311F44424552483
:1003F20059C0A0916001A63321F4A0916101A533F7
:1004020009F016C00E94140334F00E941003A9E3FD
:100412000E94C202B8CEA42DA95A0E94190311F457
:100422000E9427030E942C0311F4442455243AC04D
:10043200A0916001A23341F4A0916101A43321F49F
:10044200A0916201A13309F00FC0A42DA75A0E9406
:10045200190311F40E942703E2E0F0E0E415F50528
:1004620011F4442455241EC0A0916001A13341F42B
:10047200A0916101A23321F4A0916201A53309F098
:1004820002C0A0E30AC0A0916001A73321F4A091A9
:100492006101A93309F006C0A3E20E94C202E1E0B1
:1004A200F0E04F0170CEFFCFBA93AA93A991B99110
:1004B200E991F99130962AF4E095F09531966DE242
:1004C2006D93E89480E197E20DD088EE93E00AD034
:1004D20084E6992707D08AE005D06E2F10D06627D0
:1004E2006C9308956627E817F90720F06395E81BD7
:1004F200F90BC9F7662311F416F008956894605D4C
:100502006D930895AA93EBB3EF70AE2FE881E07F6D
:10051200EA2BEBBB8DE08A95F1F7DA9A8DE08A95AA
:10052200F1F7DA988DE08A95F1F777C0AA93A8815E
:10053200E9DFE881E295E883A881E4DF85E88A952E
:10054200F1F76BC0AA93E881F0E0E259FE4FE08137
:10055200A981AE0FEBDFE981E0937201E881E093BC
:10056200730122960895A2E00E943103ACE0DEDF1F
:10057200A1E00E943103E0E0E0937301E093720195
:100582000895AA93A881AA3031F0E0917401A09154
:100592007201AE1758F0E0E0EA93A0917301AF5FE9
:1005A200A0937301CFDFA881AA30B9F1E091720163
:1005B200EF5FE0937201D89AA881B8DFD8982DC076
:1005C200AA93EAB3E06FEABBD29AD09AD19ADA98A8
:1005D200D898D998E881E0937401E058E0937001CB
:1005E200E881E054E0937101A4E1B0E00E943F038E
:1005F2000E9437030E9437030E943703A0E282DF82
:1006020088EC90E00197F1F7A8E290DFA4E08EDF9A
:10061200A5E88CDFA6E08ADFA6DF219608956A921C
:10062200A0E00C94A302E4E8F3E08E169F0608957E
:100632000E94C202F40131964F01D401ECE3F0E0D2
:100642000E946303EB33A0E0FA070895F2013196AA
:100652002F0131970895E3E0F0E0E415F5050895E0
:100662000E949702A3E0B0E00C943F03A0E30E9433
:10067200830288EC90E00197F1F70895109639F023
:1006820080ED97E00197F1F7A8951197C9F70895C2
:10069200F195E195F04008950024112490E1AA0F0C
:1006A200BB1F001C111C0E1A1F0A18F40E0E1F1E6F
:1006B20001C0A1609A9599F7FD01D0010895ECDF80
:1006C200FD010895E894B7FF04C0A095B095119676
:1006D2006894F7FDDDDFE0DFFD010EF4D9DF089558
:00000001FF
