:100000000C9438000C9400000C9400000C94000038
:100010000C9400000C9400000C9400000C94000060
:100020000C9400000C9465000C9400000C940000EB
:100030000C9400000C9400000C9400000C94000040
:100040000C9400000C9400000C9400000C94000030
:100050000C94000080C001002D4E414E00494E46D8
:10006000000002008601540001008A0156000000D1
:10007000F894EE27ECBBF1E0FBBFEBBFE5BF8DE0F2
:10008000A2E0BB27ED938A95E9F780E094E0A0E633
:10009000ED930197E9F7E2E6F0E0859195910097FD
:1000A00061F0A591B59105901590BF01F001059003
:1000B0000D920197E1F7FB01F0CFEFE5EDBFE4E032
:1000C000EEBFC0E6D1E00C9474001895AA93E881C5
:1000D000E062E7B98BE18A95F1F7369A349BFECF5F
:1000E000349AE5B10C94E501E0E0EBB9E8E0EAB957
:1000F000E6E8E0BDE0E0E0BDE9E1E9B9E0EFEA9380
:10010000ADE7B1E00E947D020E2FE0E0EABBEBBB61
:10011000E7BBE8BBE4BBE5BBE1BBE2BBE3E0E3BFBD
:10012000E0E0E2BFECBFEFBDEEBDEDBDECBDE7BD75
:10013000E6BDEBBDEABDE9BDE8BDE2BDE5BDE4BDA0
:10014000E3BDE1E0E9BFE0E0E5BFE4BFEAB9E0E834
:10015000E8B9E0E2E7B9E3E8E6B9E0E0E0BFEDB92D
:10016000E6BF0E942D02A0E104D178941030D1F4B2
:10017000A9E01A9FF001E358FE4FDF0172D09F0102
:10018000D901E0E5F0E00E942B03FA93EA93A9E697
:10019000B1E00E94E701E0E0EA93A0E0ABD0A9E67D
:1001A000B1E0D6D0E0E0EA93A1E0A4D0A0E08EDFF9
:1001B0006E2E77247A926A92A3E7B1E00E94E7015B
:1001C000A3E7B1E0C5D0D2CFFFCFBA93AA931A93D9
:1001D0000E942D02E03011F4E0E0C8C0E981FA810C
:1001E000309781F0A5E50E94730210E0A981BA81E1
:1001F000ED91A983BA83AE2F0E9473021F5F18305E
:10020000A8F303C0ACEC0E947302E1E0AFC0BA9364
:10021000AA930E943E03AC81BD81D7DFE03011F488
:10022000E0E01BC0AEEB0E94730210E020E631E07C
:100230003F932F932F5F3F4F0E946E02AF91BF916C
:10024000EC931F5F1930A0F3E0E6F1E0FA93EA9334
:10025000A9E00E94EC020E9406030E944303269636
:100260000895BA93AA93A881B981AFDFE03019F459
:10027000E1EFF8ED4AC0A4E40E947302A6E2B2E006
:100280000E942302A881B981C2DFE03019F4E1EFB6
:10029000F8ED3BC00E942D02F0916101E0E0DF012A
:1002A000E0916001F0E0EA2BFB2BA5E0B0E00E94BA
:1002B00013032BC0AA93E5B3EF70AE2FE881E07F64
:1002C000EA2BE5BB8DE08A95F1F7AA9A8DE08A9535
:1002D000F1F7AA988DE08A95F1F777C0AA93A881E3
:1002E000E9DFE881E295E883A881E4DF85E88A9583
:1002F000F1F76BC0AA93E881F0E0EA57FE4FE08186
:10030000A981AE0FEBDF9980888022960895A2E044
:100310000E941502ACE0E2DFA1E00E941502E0E0DD
:100320008E2E9E2E0895AA93A881AA3011F09B14B8
:1003300048F0E0E0EA938394A82DDCDFA881AA309E
:1003400009F443C09394A89AA881C8DFA8983DC037
:10035000BA93AA931A93A981BA81ED91A983BA831A
:100360001E2FE03019F0A12FDEDFF5CF1881239684
:100370000895AA93E4B3E06FE4BBA29AA09AA19A6D
:10038000AA98A898A998B880E881E058E0938801D5
:10039000E881E054E0938901A4E1B0E00E942302E7
:1003A0000E941B020E941B020E941B02A0E282DF2D
:1003B00088EC90E00197F1F7A8E290DFA4E08EDFEF
:1003C000A5E88CDFA6E08ADFA2DF21960895BA9324
:1003D000AA93A991B991E991F99130962AF4E095FF
:1003E000F09531966DE26D93E89480E197E20DD03F
:1003F00088EE93E00AD084E6992707D08AE005D0FA
:100400006E2F10D066276C9308956627E817F907BA
:1004100020F06395E81BF90BC9F7662311F416F079
:1004200008956894605D6D9308950E946E01A3E045
:10043000B0E00C942302A0E30E945A0188EC90E003
:100440000197F1F70895109639F080ED97E0019744
:10045000F1F7A8951197C9F70895EE279098889A13
:1004600080EC93E00197F1F7889885E28A95F1F79F
:10047000809B08958BEC8A95F1F7809BE1E08CE0FE
:1004800093E00197F1F70895889A85E08A95F1F74E
:1004900088988DE18A95F1F7889480990894E7957A
:1004A00085ED8A95F1F70895E894889A85E08A9514
:1004B000F1F770FD889883E28A95F1F7809903C07F
:1004C00070FF03C0089570FF089588EC8A95F1F7D6
:1004D00088988DE08A95F1F76894089568E0D4DFF4
:1004E0006A95E9F708957A2F68E0EE27DDDF26F4B4
:1004F00077956A95D9F7E39508954F935F93112403
:100500004427012C1124A9DFEE2301F1AF93A88128
:10051000EADFAF9151E0501598F4B6DFE7FD08C06F
:10052000B3DFE7FD06C03FD0892319F4152E01C0C3
:10053000ABDF39D0892370E009F071E0B5DF1EC070
:10054000A3DFE7FF0BC0A0DFE7FF05C0E42F5F914B
:100550004F9121960895689437D0EFCF95DFE7FF4C
:1005600001C003C0501531F0152EE8942DD0772727
:100570009BDF04C0689428D071E096DF5395513416
:1005800054F282DFEE1FEE1FE1701896EC9318977D
:1005900043951120D9F259E0EC911996EC931897F4
:1005A0005A95D1F7AECFE52FEA956E2FE695E695F1
:1005B000E695FF27EA0FFB1F808191E0677019F035
:1005C000990F6A95FCCF0895EEDF1EF09095892370
:1005D00001C0892B80830895EE27AA2389F08A2FF2
:1005E00068E1A881B98198E0FD917F2F7E277795FA
:1005F00008F4E627E795F6959A95B9F78A9599F75D
:1006000022960895F195E195F0400895EE23E1E0FA
:1006100009F0EE270895FA9FF02DEB9FF00DEA9F69
:10062000E02DF10D08951CD0F6DF0EF4EBDF0895F8
:100630000024112490E1AA0FBB1F001C111C0E1AEC
:100640001F0A18F40E0E1F1E01C0A1609A9599F79B
:10065000FD01D001089504D0EBDF0EF4D3DF08953F
:10066000E894F7FF02C0CEDF6894B7FF06C0A095FC
:10067000B095119600F8039400FA08953A932A93DE
:100680001A930A9308953B812A811981088108955C
:00000001FF
