:040000000C94380024
:100004000C9400000C9400000C9400000C9400006C
:100014000C9400000C9400000C9400000C9400005C
:100024000C9465000C9400000C9400000C940000E7
:100034000C9400000C9400000C9400000C9400003C
:100044000C9400000C9400000C9400000C9400002C
:1000540080C001002D4E414E00494E460000020072
:10006400600154000100640156000000F894EE277A
:10007400ECBBF1E0FBBFEBBFE5BF8DE0A2E0BB272B
:10008400ED938A95E9F780E094E0A0E6ED9301977B
:10009400E9F7E2E6F0E085919591009761F0A5918A
:1000A400B59105901590BF01F00105900D9201974F
:1000B400E1F7FB01F0CFEFE5EDBFE4E0EEBFC0E612
:1000C400D1E00C947700EA93E2EBE2BFE991189552
:1000D400AA93E881E064E7B98BE18A95F1F7369A4F
:1000E400349BFECF349AE5B1BFC0E0E0EABBEBBB82
:1000F400E7BBE8BBE4BBE5BBEFEFE1BBE0E0E2BBA1
:10010400E5E0E3BFE2EBE2BFE0E0ECBFEFBDEEBD54
:10011400EDBDECBDE7BDE6BDEBBDEABDE9BDE8BDA7
:10012400E2BDE5BDE4BDE3BDE1E0E9BFE0E0E5BF7C
:10013400E4BFEAB9E0E8E8B9E0E4E7B9EBE8E6B936
:10014400E0E0E0BFEDB9E6BFA8E062D07894A0E3B8
:10015400BFDF4E2E5524F2010E94C3010E94F1011B
:10016400D3010E943801E0E0EA93A0E024D0A4E6A1
:100174003BD0EDCFFFCFAA93E2B3EF70AE2FE8816F
:10018400E07FEA2BE2BB8DE08A95F1F7929A8DE04D
:100194008A95F1F792988DE08A95F1F765C0AA9354
:1001A400A881E9DFE881E295E883A881E4DF85E8B6
:1001B4008A95F1F759C0AA93E881F0E0E05AFE4F1E
:1001C400E081A981AE0FEBDF9980888022960895A3
:1001D400A2E00E949301ACE0E2DFA1E00E9493015F
:1001E400E0E08E2E9E2E0895AA93A881AA3011F0E5
:1001F4009B1440F0E0E0EA938394A82DDCDFA8810F
:10020400AA3091F19394909AA881C9DF90982CC058
:10021400AA93E1B3E06FE1BB8A9A889A899A92988B
:1002240090989198B880E881E058E0936201E88161
:10023400E054E0936301A4E1B0E00E94B1010E94A4
:1002440099010E9499010E949901A0E294DF88EC2F
:1002540090E00197F1F7A8E2A2DFA4E0A0DFA5E80F
:100264009EDFA6E09CDFB4DF21960895BA93AA939B
:1002740024971A930A93E0E0FAEC6AE97BE3EA83B1
:10028400FB836C837D8300E0AB85AA2372F4E8854D
:10029400F9856A857B850E94BB01E887F9876A87AF
:1002A4007B870E94A101EDE2EC930E94A8010E94C9
:1002B400C8011E2F103071F4003061F4AA81BB8193
:1002C4008C819D81A130E0E0BE07E0E08E07E0E094
:1002D4009E0731F40E94A101E12FE05DEC9301E05F
:1002E4000E94A8010E94ED01E887F9876A877B874D
:1002F400AA81BB818C819D81EAE0F0E060E070E03E
:100304000E94C801EA83FB836C837D830E94F6010B
:1003140061F6AE81BF81E0E0EC93198108812C96EF
:1003240008950E94D100A3E0B0E00C94B101A0E3D1
:100334000E94BD0088EC90E00197F1F70895AE812A
:10034400BF811196AE83BF8311970895EA81FB8123
:100354006C817D81A885B9858A859B8508951096D1
:1003640039F080ED97E00197F1F7A8951197C9F757
:100374000895F09560957095E195FF4F6F4F7F4F0D
:1003840008956F2F660F660B762F08953F934F9352
:100394005F93002411244427552730E2AA0FBB1F82
:1003A400881F991F001C111C441F551F0E1A1F0A79
:1003B400460B570B28F40E0E1F1E461F571F01C075
:1003C400A1603A9559F7FD01BC01D001CA015F91C2
:1003D4004F913F910895DADFFD01BC0108957A93AE
:1003E4006A93FA93EA9308953097604070400895B1
:00000001FF
