:0A0000000C9438000C9400000C94DE
:10000A0000000C9400000C9400000C9400000C9466
:10001A0000000C9400000C9400000C9465000C94F1
:10002A0000000C9400000C9400000C9400000C9446
:10003A0000000C9400000C9400000C9400000C9436
:10004A0000000C9400000C94000080C001002D4EAA
:10005A00414E00494E460000020060015400010072
:10006A00640156000000F894EE27ECBBF1E0FBBFF8
:10007A00EBBFE5BF8DE0A2E0BB27ED938A95E9F7D8
:10008A0080E094E0A0E6ED930197E9F7E2E6F0E07C
:10009A0085919591009761F0A591B591059015907C
:1000AA00BF01F00105900D920197E1F7FB01F0CF36
:1000BA00EFE5EDBFE4E0EEBFC0E6D1E00C947800D6
:1000CA00EA93E2EBE2BFE9911895AA93E881E0642A
:1000DA00E7B98BE18A95F1F7369A349BFECF349AC9
:1000EA00E4B1F5B1CDC0E0E0EABBEBBBE7BBE8BBEE
:1000FA00EFEFE4BBE0E0E5BBE1BBE2BBE5E0E3BF79
:10010A00E2EBE2BFE0E0ECBFEFBDEEBDEDBDECBD62
:10011A00E7BDE6BDEBBDEABDE9BDE8BDE2BDE5BDB3
:10012A00E4BDE3BDE1E0E9BFE0E0E5BFE4BFEAB971
:10013A00E0E8E8B9E0E4E7B9E3EAE6B9E0E0E0BF1D
:10014A00EDB9E6BFA0E170D07894E0E0EA93A0E0D0
:10015A002CD0A0E0BADF2F015A924A92D5010E9410
:10016A004701D50150D0F1CFFFCFAA93E5B3EF7085
:10017A00AE2FE881E07FEA2BE5BB8DE08A95F1F7A7
:10018A00AA9A8DE08A95F1F7AA988DE08A95F1F7F7
:10019A0077C0AA93A881E9DFE881E295E883A8817C
:1001AA00E4DF85E88A95F1F76BC0AA93E881F0E06D
:1001BA00E05AFE4FE081A981AE0FEBDF6980D8805B
:1001CA0022960895A2E00E947501ACE0E2DFA1E068
:1001DA000E947501E0E0DE2E6E2E0895AA93A88192
:1001EA00AA3011F06C1448F0E0E0EA93D394AD2DF4
:1001FA00DCDFA881AA3009F443C06394A89AA881D5
:10020A00C8DFA8983DC0BA93AA931A93A981BA8164
:10021A00ED91A983BA831E2FE03019F0A12FDEDFFA
:10022A00F5CF188123960895AA93E4B3E06FE4BB4F
:10023A00A29AA09AA19AAA98A898A998C880E8818F
:10024A00E058E0936201E881E054E0936301A4E19D
:10025A00B0E00E9483010E947B010E947B010E9400
:10026A007B01A0E282DF88EC90E00197F1F7A8E237
:10027A0090DFA4E08EDFA5E88CDFA6E08ADFA2DFAC
:10028A0021960895BA93AA93A991B991E991F991FE
:10029A0030962AF4E095F09531966DE26D93E894E4
:1002AA0080E197E20DD088EE93E00AD084E69927A0
:1002BA0007D08AE005D06E2F10D066276C93089578
:1002CA006627E817F90720F06395E81BF90BC9F7C9
:1002DA00662311F416F008956894605D6D9308958D
:1002EA000E94CE00A3E0B0E00C948301A0E30E9438
:1002FA00BA0088EC90E00197F1F70895109639F06A
:10030A0080ED97E00197F1F7A8951197C9F708953D
:00000001FF
