:100000000C9441000C9400000C9400000C9400002F
:100010000C9400000C9400000C9400000C94000060
:100020000C9400000C9400000C9400000C94000050
:100030000C9400000C9400000C9400000C94000040
:100040000C9400000C9400000C9400000C94000030
:100050000C9400001027E80364000A00010000105F
:1000600000011000010080C001002D4E414E0049EA
:100070004E46000002006001660001006401680055
:100080000000F894EE27ECBBF1E0FBBFEBBFE5BF4F
:100090008DE0A2E0BB27ED938A95E9F780E094E03C
:1000A000A0E6ED930197E9F7E4E7F0E085919591FB
:1000B000009761F0A591B59105901590BF01F001F1
:1000C00005900D920197E1F7FB01F0CFEFE5EDBF51
:1000D000E4E0EEBFC0E6D1E00C946E00E0E1EABBE4
:1000E000E0E0EBBBE7BBE8BBE4BBE5BBE1BBE2BBED
:1000F000EBB9E8E1EAB9E6E8E0BDE0E0E0BDE3E362
:10010000E9B9E0E2E7B9E3E8E6B9E0E0E0BFA0E1A1
:1001100065D00E941C015E2EE0E0EA93A0E031D0A1
:10012000A52D48D0A4E6B0E00E942E01E2E7E51537
:1001300011F4DC9A04C0EBE6E51509F4DC98E9CF8C
:10014000FFCFAA93E5B3EF70AE2FE881E07FEA2BF3
:10015000E5BB8DE08A95F1F7AA9A8DE08A95F1F7D3
:10016000AA988DE08A95F1F765C0AA93A881E9DF86
:10017000E881E295E883A881E4DF85E88A95F1F7D4
:1001800059C0AA93E881F0E0E05AFE4FE081A981CE
:10019000AE0FEBDF4980988022960895A2E00E947E
:1001A0002001ACE0E2DFA1E00E942001E0E09E2E11
:1001B0004E2E0895AA93A881AA3011F0481440F059
:1001C000E0E0EA939394A92DDCDFA881AA3091F1B5
:1001D0004394A89AA881C9DFA8982CC0AA93E4B335
:1001E000E06FE4BBA29AA09AA19AAA98A898A998AD
:1001F0008880E881E058E0936201E881E054E09370
:100200006301A4E1B0E00E942E010E9426010E9439
:1002100026010E942601A0E294DF88EC90E001977D
:10022000F1F7A8E2A2DFA4E0A0DFA5E89EDFA6E048
:100230009CDFB4DF219608955F9BFECFECB108955B
:100240000E94B500A3E0B0E00C942E01A0E30E9450
:10025000A10088EC90E00197F1F70895109639F02D
:1002600080ED97E00197F1F7A8951197C9F70895E8
:00000001FF
