:0C0000000C9438000C9400000C940000DC
:10000C000C9400000C9400000C9400000C94000064
:10001C000C9400000C9400000C9465000C940000EF
:10002C000C9400000C9400000C9400000C94000044
:10003C000C9400000C9400000C9400000C94000034
:10004C000C9400000C94000001002D4E414E004910
:10005C004E46000080C001006101540002006501A1
:10006C0060000000F894EE27ECBBF1E0FBBFEBBFA7
:10007C00E5BF8DE0A2E0BB27ED938A95E9F780E020
:10008C0094E0A0E6ED930197E9F7E2E6F0E08591C4
:10009C009591009761F0A591B59105901590BF01D0
:1000AC00F00105900D920197E1F7FB01F0CFEFE520
:1000BC00EDBFE4E0EEBFC0E6D1E00C9474001895FF
:1000CC00AA93E881E7B98BE18A95F1F7369A349BCC
:1000DC00FECF349AE4B1F5B10C946401E0E0EABBD4
:1000EC00EBBBE8E0E7BBE0E0E8BBE4BBE5BBE0EE84
:1000FC00E1BBE0E0E2BBEBE7E3BFE0E0E2BFECBF7B
:10010C00E1E0E9BFE0E0E7B9E3E8E6B9E0E0E0BF51
:10011C00A0E10E9438017894A0E0D2DF2F015A921E
:10012C004A92A0E6B1E00E94AB00E0E0EA93A0E0C6
:10013C000E94F900A0E6B1E00E942701A4E6B0E01D
:10014C000E9474014CBEE8CFFFCFBA93AA93A99139
:10015C00B991E991F99130962AF4E095F0953196A0
:10016C006DE26D93E89480E197E20DD088EE93E018
:10017C000AD084E6992707D08AE005D06E2F10D0DC
:10018C0066276C9308956627E817F90720F06395A6
:10019C00E81BF90BC9F7662311F416F0089568945F
:1001AC00605D6D930895AA93E5B3EF70AE2FE8816F
:1001BC00E07FEA2BE5BB8DE08A95F1F7AA9A8DE0FA
:1001CC008A95F1F7AA988DE08A95F1F777C0AA93F2
:1001DC00A881E9DFE881E295E883A881E4DF85E87E
:1001EC008A95F1F76BC0AA93E881F0E0EB59FE4FCA
:1001FC00E081A981AE0FEBDF7980688022960895AB
:10020C00A2E00E946601ACE0E2DFA1E00E94660180
:10021C00E0E06E2E7E2E0895AA93A881AA3011F0EC
:10022C00791448F0E0E0EA936394A62DDCDFA88112
:10023C00AA3009F443C07394A89AA881C8DFA8987F
:10024C003DC0BA93AA931A93A981BA81ED91A9835F
:10025C00BA831E2FE03019F0A12FDEDFF5CF188105
:10026C0023960895AA93E4B3E06FE4BBA29AA09AF4
:10027C00A19AAA98A898A9989880E881E058E09348
:10028C006701E881E054E0936801A4E1B0E00E94CA
:10029C0074010E946C010E946C010E946C01A0E22E
:1002AC0082DF88EC90E00197F1F7A8E290DFA4E000
:1002BC008EDFA5E88CDFA6E08ADFA2DF2196089509
:1002CC000E94ED00A3E0B0E00C947401A0E30E9446
:1002DC00D90088EC90E00197F1F70895109639F069
:1002EC0080ED97E00197F1F7A8951197C9F708955C
:00000001FF
