:080000000C942F000C94000089
:100008000C9400000C9400000C9400000C94000068
:100018000C9400000C9400000C9400000C945C00FC
:100028000C9400000C9400000C9400000C94000048
:100038000C9400000C9400000C9400000C94000038
:100048000C9400000C9400000C94000000000200C6
:10005800040054000000F894EE27ECBBF1E0FBBF6D
:10006800EBBFE5BF8DE0A2E0BB27ED938A95E9F7EA
:1000780080E094E0A0E6ED930197E9F7E6E5F0E08B
:1000880085919591009761F0A591B591059015908E
:10009800BF01F00105900D920197E1F7FB01F0CF48
:1000A800EFE5EDBFE4E0EEBFC0E6D1E00C946F00F1
:1000B800EA93FA93EFB7EA93F20131962F01E4E05D
:1000C800F0E0E415F50511F444245524E991EFBF57
:1000D800F991E9911895E0E0EABBEBBBEFE0E7BBEB
:1000E800E8BBEFEFE4BBE0E0E5BBEFEFE1BBE0E04E
:1000F800E2BBE5E0E3BFE0E0E2BFECBFE1E0E9BF7F
:100108007894042C052839F4C098C19A32D0949870
:10011800959A969A2CC0E1E0F0E0E415F50531F4E3
:10012800C09AC19826D0949A959A20C0E2E0F0E04F
:10013800E415F50561F4C09AC19AC298C39A909AD9
:10014800919A929A939A949A959A969A10C0E3E003
:10015800F0E0E415F50559F4C09AC19AC29AC3981B
:100168009098919A929A9398949895989698C9CFBE
:10017800FFCFC29AC39A909A919A929A939A0895A5
:00000001FF
