:020000000C945E
:100002002A000C9400000C9400000C9400000C9444
:1000120000000C9400000C9400000C9400000C945E
:1000220000000C9400000C9400000C9400000C944E
:1000320000000C9400000C9400000C9400000C943E
:1000420000000C9400000C9400000C9400000C942E
:100052000000F894EE27ECBBF1E0FBBFEBBFE5BF7D
:100062008DE0A2E0BB27ED938A95E9F780E094E06A
:10007200A0E6ED930197E9F7EFE5EDBFE4E0EEBF0F
:10008200C0E6D1E00C9445002897E1E0E883E3E084
:10009200E983E2E0EA83E6E0EB83E4E0EC83ECE090
:1000A200ED83E8E0EE83E9E0EF83E0E0EABBE1E044
:1000B200EBBBEFE0E4BBE0E0E5BBC89B0AC000E0BD
:1000C20010E00830E0E01E0724F40FD00F5F1F4F4E
:1000D200F8CFC89908C007E010E0112322F005D03C
:1000E20001501040FACFE9CFFFCFDE01A00FB11FC0
:1000F200EC91E5BBA2E0B0E00C947F00109639F0E1
:100102008AEF90E00197F1F7A8951197C9F7089542
:00000001FF
