:020000000C945E
:1000020045000C9400000C9400000C9400000C9429
:1000120000000C9400000C9400000C9400000C945E
:1000220000000C9400000C9400000C9400000C944E
:1000320000000C9400000C9400000C9400000C943E
:1000420000000C9400000C9400000C9400000C942E
:1000520000007468697320697320757300696E20EB
:1000620074686520756E6976657263697479212199
:10007200000080C00B006001540014006B015F009F
:1000820002007F0174000000F894EE27ECBBF1E05F
:10009200FBBFEBBFE5BF8DE0A2E0BB27ED938A95E6
:1000A200E9F780E094E0A0E6ED930197E9F7E6E74F
:1000B200F0E085919591009761F0A591B591059039
:1000C2001590BF01F00105900D920197E1F7FB0138
:1000D200F0CFEFE5EDBFE4E0EEBFC0E6D1E00C9477
:1000E2007200E0E0EABBEBBBE7BBE8BBEFEFE4BBCF
:1000F200E0E0E5BBE1BBE2BBE3BFE2BFECBFEFBDCB
:10010200EEBDEDBDECBDE7BDE6BDEBBDEABDE9BDB3
:10011200E8BDE2BDE5BDE4BDE3BDE9BFE5BFE4BFC7
:10012200EAB9E0E8E8B9E0E0E0BFE6B9EDB9E6BF78
:10013200A0E16DD0E0E0EA93A0E02CD0A0E6B1E02F
:1001420055D0E0E0EA93A1E025D0ABE6B1E04ED095
:10015200F1CFFFCFAA93E5B3EF70AE2FE881E07F36
:10016200EA2BE5BB8DE08A95F1F7AA9A8DE08A9594
:10017200F1F7AA988DE08A95F1F772C0AA93A88147
:10018200E9DFE881E295E883A881E4DF85E88A95E2
:10019200F1F766C0AA93E881F0E0E158FE4FE081F2
:1001A200A981AE0FEBDF5980488022960895A2E024
:1001B20059D0ACE0E3DFA1E055D0E0E04E2E5E2E58
:1001C2000895AA93A881AA3011F0571448F0E0E0EC
:1001D200EA934394A42DDEDFA881AA3009F440C03B
:1001E2005394A89AA881CADFA8983AC0BA93AA934E
:1001F2001A93A981BA81ED91A983BA831E2FE030A7
:1002020019F0A12FDEDFF5CF188123960895AA9366
:10021200E4B3E06FE4BBA29AA09AA19AAA98A89824
:10022200A9987880E881E058E0938101E881E05460
:10023200E0938201A4E1B0E00E943F0118D017D000
:1002420016D0A0E287DF88EC90E00197F1F7A8E2F0
:1002520095DFA4E093DFA5E891DFA6E08FDFA7DFBB
:10026200219608958BDFA3E0B0E00C943F01A0E358
:1002720071DF88EC90E00197F1F70895109639F05C
:1002820080ED97E00197F1F7A8951197C9F70895C6
:00000001FF
