:080000000C944E000C9400006A
:100008000C9400000C9400000C9400000C94000068
:100018000C9400000C9400000C9400000C94000058
:100028000C9400000C947B000C9400000C940000CD
:100038000C9400000C9400000C9400000C94000038
:100048000C9400000C9400000C9400001027E803A6
:1000580064000A0001000010000110000100000007
:1000680000006173000080C001002D4E414E004920
:100078004E46000001000200660001000C00680006
:10008800030060016A000200CD016E000100D40186
:1000980070000000F894EE27ECBBF1E0FBBFEBBF6B
:1000A800E5BF8DE0A2E0BB27ED938A95E9F780E0F4
:1000B80094E0A0E6ED930197E9F7ECE7F0E085918D
:1000C8009591009761F0A591B59105901590BF01A4
:1000D800F00105900D920197E1F7FB01F0CFEFE5F4
:1000E800EDBFE4E0EEBFC0E6D1E00C94D300AA93E4
:1000F800EA93FA93EFB7EA931A930A931BB10CB1F8
:10010800E12FEC71B1F4EC2DC394F0E0E256FE4F10
:100118000083E8E0EC1509F4CC24A091A701AF5FB7
:10012800A093A701A83029F4E0E0E093A701689420
:1001380020F809911991E991EFBFF991E991A991F5
:1001480018951A93E091A701E030E1F3E091A60138
:10015800EF5FE093A601E150F0E0E256FE4F108118
:10016800A091A601A83019F4E0E0E093A601F89464
:10017800E091A701E150E093A7017894E12F19914C
:100188000895AA93E881E062E7B98BE18A95F1F7CF
:10019800369A349BFECF349AE5B10C94AA02E0E07B
:1001A800EBB9E8E0EAB9E6E8E0BDE0E0E0BDE9E1A6
:1001B800E9B9E0EFEA93A8EAB1E00E9451030E2FF3
:1001C800E0E0EABBEBBBE7BBE8BBE4BBE5BBE1BBFC
:1001D800E2BBE3BFE2BFECBFEFBDEEBDEDBDECBDE2
:1001E800E7BDE6BDEBBDEABDE9BDE8BDE2BDE5BDE5
:1001F800E4BDE3BDE9BFE5BFE4BFEBB9E0E9EAB9B7
:10020800E6E8E0BDE0E0E0BDE3E3E9B9E0E8E8B94D
:10021800E0E2E7B9E3E8E6B9E0E0E0BFEDB9E6BF60
:100228000E940103E0EFEA93ABEBB1E00E945103B7
:10023800E093BA01A0E15DD1789410E0123078F52E
:10024800A9E01A9FF001E855FE4FDF01B9D09F01E0
:10025800E12FF0E0FA93EA93A4E9B1E00E94AC023E
:10026800E0E0EA93A1E0F5D0A4E9B1E031D10E9441
:10027800DA020E94AC02103019F40E94DA020BC0B4
:10028800113059F4D901E0E5F0E00E94FF03FA9338
:10029800EA93AAE8B1E00E94AC021F5FCFCFA0E0CA
:1002A80070DF6E2E7724F301EE0FFF1FFA93EA93A7
:1002B800A6E7B1E00E94AC02A1E063DF8E2E99248C
:1002C800F401EE0FFF1FFA93EA93A0E8B1E00E9451
:1002D800AC0237DFDE2EE1E3ED1529F40E94E402DB
:1002E800ACE6B1E01EC0E2E3ED1531F4C3D00E94E4
:1002F800E402A6E7B1E015C0E3E3ED1529F40E9496
:10030800E402AAE8B1E00DC0E4E3ED1531F4B2D09F
:100318000E94E402A0E8B1E004C00E94E402A0E662
:10032800B1E0D6D08ACFFFCFBA93AA931A930E948E
:100338000103E03011F4E0E0D9C0E981FA81309797
:1003480081F0A5E50E94470310E0A981BA81ED91EB
:10035800A983BA83AE2F0E9447031F5F1830A8F302
:1003680003C0ACEC0E944703E1E0C0C0BA93AA9373
:100378000E941204AC81BD81D7DFE03011F4E0E0C7
:100388001BC0AEEB0E94470310E023E631E03F9329
:100398002F932F5F3F4F0E944203AF91BF91EC9381
:1003A8001F5F1930A0F3E3E6F1E0FA93EA93A9E0BE
:1003B8000E94C0030E94DA030E941704269608953B
:1003C800BA93AA93A881B981AFDFE03019F4E1EFBD
:1003D800F8ED4EC0A4E40E944703A6E2B2E00E94F2
:1003E800F702A881B981C2DFE03019F4E1EFF8ED36
:1003F8003FC00E940103F0916401E0E0DF01E09159
:100408006301F0E0EA2BFB2BA5E0B0E00E94E703D4
:100418002FC0AA93E5B3EF70AE2FE881E07FEA2BF7
:10042800E5BB8DE08A95F1F7AA9A8DE08A95F1F7F8
:10043800AA988DE08A95F1F789C0AA93A881E9DF87
:10044800E881E295E883A881E4DF85E88A95F1F7F9
:100458007DC0AA93E881F0E0E353FE4FE081A981D3
:10046800AE0FEBDFE981E093D101E881E093D2019F
:1004780022960895A2E00E94E902ACE0DEDFA1E046
:100488000E94E902E0E0E093D201E093D1010895EF
:10049800AA93A881AA3031F0E091D301A091D101AB
:1004A800AE1760F0E0E0EA93A091D201AF5FA093AD
:1004B800D201CFDFA881AA3009F448C0E091D10168
:1004C800EF5FE093D101A89AA881B7DFA8983EC052
:1004D800BA93AA931A93A981BA81ED91A983BA8391
:1004E8001E2FE03019F0A12FD3DFF5CF1881239606
:1004F8000895AA93E4B3E06FE4BBA29AA09AA19AE4
:10050800AA98A898A998E881E093D301E058E093C5
:10051800CF01E881E054E093D001A4E1B0E00E946B
:10052800F7020E94EF020E94EF020E94EF02A0E28F
:1005380070DF88EC90E00197F1F7A8E27EDFA4E095
:100548007CDFA5E87ADFA6E078DF94DF21960895BE
:10055800BA93AA93A991B991E991F99130962AF49D
:10056800E095F09531966DE26D93E89480E197E21D
:100578000DD088EE93E00AD084E6992707D08AE068
:1005880005D06E2F10D066276C9308956627E8175C
:10059800F90720F06395E81BF90BC9F7662311F4F6
:1005A80016F008956894605D6D930895D901E0E5AB
:1005B800F0E00E94FF03FA93EA93ACE6B1E00895F5
:1005C800E0E0EA93A0E00C942D020E942102A3E04F
:1005D800B0E00C94F702A0E30E940D0288EC90E0D2
:1005E8000197F1F70895109639F080ED97E001979B
:1005F800F1F7A8951197C9F70895EE27C798BF9AFC
:1006080080EC93E00197F1F7BF9885E28A95F1F7BE
:10061800B79B08958BEC8A95F1F7B79BE1E08CE0E6
:1006280093E00197F1F70895BF9A85E08A95F1F76D
:10063800BF988DE18A95F1F78894B7990894E79562
:1006480085ED8A95F1F70895E894BF9A85E08A9533
:10065800F1F770FDBF9883E28A95F1F7B79903C067
:1006680070FF03C0089570FF089588EC8A95F1F72C
:10067800BF988DE08A95F1F76894089568E0D4DF13
:100688006A95E9F708957A2F68E0EE27DDDF26F40A
:1006980077956A95D9F7E39508954F935F93112459
:1006A8004427012C1124A9DFEE2301F1AF93A8817F
:1006B800EADFAF9151E0501598F4B6DFE7FD08C0C6
:1006C800B3DFE7FD06C03FD0892319F4152E01C01A
:1006D800ABDF39D0892370E009F071E0B5DF1EC0C7
:1006E800A3DFE7FF0BC0A0DFE7FF05C0E42F5F91A2
:1006F8004F9121960895689437D0EFCF95DFE7FFA3
:1007080001C003C0501531F0152EE8942DD077277D
:100718009BDF04C0689428D071E096DF539551346C
:1007280054F282DFEE1FEE1FE1701896EC931897D3
:1007380043951120D9F259E0EC911996EC9318974A
:100748005A95D1F7AECFE52FEA956E2FE695E69547
:10075800E695FF27EA0FFB1F808191E0677019F08B
:10076800990F6A95FCCF0895EEDF1EF090958923C6
:1007780001C0892B80830895EE27AA2389F08A2F48
:1007880068E1A881B98198E0FD917F2F7E27779550
:1007980008F4E627E795F6959A95B9F78A9599F7B3
:1007A80022960895F195E195F0400895EE23E1E051
:1007B80009F0EE270895FA9FF02DEB9FF00DEA9FC0
:1007C800E02DF10D08951CD0F6DF0EF4EBDF08954F
:1007D8000024112490E1AA0FBB1F001C111C0E1A43
:1007E8001F0A18F40E0E1F1E01C0A1609A9599F7F2
:1007F800FD01D001089504D0EBDF0EF4D3DF089596
:10080800E894F7FF02C0CEDF6894B7FF06C0A09552
:10081800B095119600F8039400FA08953A932A9334
:100828001A930A9308953B812A81198108810895B2
:00000001FF
