:100000000C9430000C9400000C9400000C94000040
:100010000C945D000C9400000C9400000C94000003
:100020000C9400000C9400000C9400000C94000050
:100030000C9400000C9400000C9400000C94000040
:100040000C9400000C9400000C9400000C94000030
:100050000C940000000001000400040054000000A3
:10006000F894EE27ECBBF1E0FBBFEBBFE5BF8DE002
:10007000A2E0BB27ED938A95E9F780E094E0A0E643
:10008000ED930197E9F7E8E5F0E085919591009708
:1000900061F0A591B59105901590BF01F001059013
:1000A0000D920197E1F7FB01F0CFEFE5EDBFE4E042
:1000B000EEBFC0E6D1E00C94B1000A921A929A9376
:1000C000AA93BA93EA93FA93EFB7EA93042C05281C
:1000D00069F4E0E0ECBFEAB5EB5FEABDE8B5E550F6
:1000E000E8BDEAB5EF3F09F476D023C0E1E0F0E0E7
:1000F000E415F50569F4ECB7EB5FECBFEAB5E55044
:10010000EABDE0E0E8BDECB7EF3F09F464D011C010
:10011000E2E0F0E0E415F50561F4ECB7E550ECBF82
:10012000E0E0EABDE8B5EB5FE8BDE8B5EF3F09F414
:1001300052D0E991EFBFF991E991B991A9919991C3
:10014000199009901895AA93E881E066E7B98BE1C8
:100150008A95F1F7369A349BFECF349AE5B1219611
:100160000895E0E0EABBEBBBE8E0E7BBE0E0E8BB1A
:10017000E4BBE5BBE0E3E1BBE0E0E2BBE9E6E3BF13
:10018000E0E0E2BFECBFE1EAEFBDE9E0EEBDE0E0B8
:10019000EDBDECBDE7BDE6BDEBBDEABDE9BDE8BD2B
:1001A000E2BDEEE0E5BDE0E0E4BDE3BDE0E8E9BFCF
:1001B000E0E6E7B9E3E8E6B9E0E0E0BF7894062CD2
:1001C000072821F0EFEFE8BD66247724A3E0BBDF2A
:1001D000E3BDF5CFFFCFD2011196E3E0F0E00E943E
:1001E0000A012F010895F195E195F040089500244A
:1001F000112490E1AA0FBB1F001C111C0E1A1F0A2C
:1002000018F40E0E1F1E01C0A1609A9599F7FD010A
:10021000D0010895E894B7FF04C0A095B095119659
:100220006894F7FDE0DFE3DFFD010EF4DCDF089505
:00000001FF
