:100000000C945B000C94B1000C9400000C94000064
:100010000C9400000C9400000C9400000C94000060
:100020000C9400000C9400000C9400000C94000050
:100030000C9400000C9400000C9400000C94000040
:100040000C9400000C9400000C9400000C948B00A5
:100050000C9400000100000000002300202020205C
:100060002020207C202020207C00733D0073636FC3
:100070007265203D200080C001002D4E414E004998
:100080004E460000020060015A000E0062015C0052
:10009000030070016A0007007301630009007A0120
:1000A0006D00060004005400020087017600010084
:1000B0008B0178000000F894EE27ECBBF1E0FBBF69
:1000C000EBBFE5BFF8E1F1BDE1BD8DE0A2E0BB27EC
:1000D000ED938A95E9F780E094E0A0E6ED9301972F
:1000E000E9F7E4E8F0E085919591009761F0A5913A
:1000F000B59105901590BF01F00105900D92019703
:10010000E1F7FB01F0CFEFE5EDBFE4E0EEBFC0E6C5
:10011000D1E00C94CA000E94FC010E946E015A9228
:10012000A0E00E946101A0E6B1E00E948F0153941B
:10013000EFE0E515A9F455240E946E01EFE0EA9383
:10014000A0E00E946101A2E6B1E00E948F01E0E020
:10015000EA93A1E00E946101A0E7B1E00E940A02D7
:100160000BC00E94FC019924552466240E946E0154
:10017000EFEFECBFEDE0E3BFE991EFBFF991E9915B
:10018000B991A9919991899179916991F990199071
:1001900009901895E0E0EBBBEABBE1E0E8BBE0E0EA
:1001A000E7BBE5BBE4BBEFEFE2BBE0E0E1BBEDE0CA
:1001B000E3BFE0E0E2BFEFEFECBFE0E0EFBDEEBD9C
:1001C000EDBDECBDE7BDE6BDEBBDEABDE9BDE8BDFB
:1001D000E2BDE5BDE4BDE3BDEBB7E064EBBFE2E04B
:1001E000E5BFE0E0E4BFE0E4EABFE2E0E9BFE0E071
:1001F000EAB9E0E8E8B9E0E0E0BFE6B9EDB9E6BFAA
:10020000A0E10E94A0016AD0E6E0EA93A1E059D003
:10021000A3E7B1E084D07894E0E0B099E1E07E2EED
:10022000E0E0E71519F4E1E0E41509F00EC0EBE0B9
:100230005E1618F4E7E0E51508F005C09394ECB7F6
:10024000E550ECBF02C0E1E06E2EE92DF0E0FA933C
:10025000EA93A3E8B1E00E94CE01E1E0E61571F473
:10026000E0E0E3BFF8943AD0E0E0EA93A0E029D0E0
:10027000AAE7B1E00E940A0266247894472CCCCF0A
:10028000FFCFAA93EBB3EF70AE2FE881E07FEA2BAC
:10029000EBBB85E08A95F1F7DA9A8DE08A95F1F764
:1002A000DA988DE08A95F1F777C0AA93A881E9DF03
:1002B000E881E295E883A881E4DF85E88A95F1F793
:1002C0006BC0AA93E881F0E0E957FE4FE081A98175
:1002D000AE0FEBDF8980B88022960895A2E00E94DD
:1002E0001002ACE0E2DFA1E00E941002E0E0BE2ECE
:1002F0008E2E0895AA93A881AA3011F08A1448F08E
:10030000E0E0EA93B394AB2DDCDFA881AA3009F4D6
:1003100043C08394D89AA881C8DFD8983DC0BA93C7
:10032000AA931A93A981BA81ED91A983BA831E2F4A
:10033000E03019F0A12FDEDFF5CF18812396089564
:10034000AA93EAB3E06FEABBD29AD09AD19ADA982C
:10035000D898D998A880E881E058E0938901E8818D
:10036000E054E0938A01A4E1B0E00E941E020E94E2
:1003700016020E9416020E941602A0E282DF88EC9A
:1003800090E00197F1F7A8E290DFA4E08EDFA5E806
:100390008CDFA6E08ADFA2DF21960895BA93AA93A4
:1003A000A991B991E991F99130962AF4E095F095E7
:1003B00031966DE26D93E89480E197E20DD088EE7E
:1003C00093E00AD084E6992707D08AE005D06E2F03
:1003D00010D066276C9308956627E817F90720F078
:1003E0006395E81BF90BC9F7662311F416F008951D
:1003F0006894605D6D9308950A921A92FA926A93D6
:100400007A938A939A93AA93BA93EA93FA93EFB75B
:10041000EA9308950E948F01A3E8B1E00C948F0144
:100420000E945501A3E0B0E00C941E02A0E30E94DC
:10043000410188EC90E00197F1F70895109639F0AA
:1004400080ED97E00197F1F7A8951197C9F7089506
:00000001FF
